{
  "_format": "hh-sol-artifact-1",
  "contractName": "MyEpicNFT",
  "sourceName": "contracts/MyEpicNFT.sol",
  "abi": [
    {
      "inputs": [],
      "stateMutability": "nonpayable",
      "type": "constructor"
    },
    {
      "anonymous": false,
      "inputs": [
        {
          "indexed": true,
          "internalType": "address",
          "name": "owner",
          "type": "address"
        },
        {
          "indexed": true,
          "internalType": "address",
          "name": "approved",
          "type": "address"
        },
        {
          "indexed": true,
          "internalType": "uint256",
          "name": "tokenId",
          "type": "uint256"
        }
      ],
      "name": "Approval",
      "type": "event"
    },
    {
      "anonymous": false,
      "inputs": [
        {
          "indexed": true,
          "internalType": "address",
          "name": "owner",
          "type": "address"
        },
        {
          "indexed": true,
          "internalType": "address",
          "name": "operator",
          "type": "address"
        },
        {
          "indexed": false,
          "internalType": "bool",
          "name": "approved",
          "type": "bool"
        }
      ],
      "name": "ApprovalForAll",
      "type": "event"
    },
    {
      "anonymous": false,
      "inputs": [
        {
          "indexed": false,
          "internalType": "address",
          "name": "sender",
          "type": "address"
        },
        {
          "indexed": false,
          "internalType": "uint256",
          "name": "tokenId",
          "type": "uint256"
        }
      ],
      "name": "NewEpicNFTMinted",
      "type": "event"
    },
    {
      "anonymous": false,
      "inputs": [
        {
          "indexed": true,
          "internalType": "address",
          "name": "previousOwner",
          "type": "address"
        },
        {
          "indexed": true,
          "internalType": "address",
          "name": "newOwner",
          "type": "address"
        }
      ],
      "name": "OwnershipTransferred",
      "type": "event"
    },
    {
      "anonymous": false,
      "inputs": [
        {
          "indexed": true,
          "internalType": "address",
          "name": "from",
          "type": "address"
        },
        {
          "indexed": true,
          "internalType": "address",
          "name": "to",
          "type": "address"
        },
        {
          "indexed": true,
          "internalType": "uint256",
          "name": "tokenId",
          "type": "uint256"
        }
      ],
      "name": "Transfer",
      "type": "event"
    },
    {
      "inputs": [
        {
          "internalType": "address",
          "name": "",
          "type": "address"
        }
      ],
      "name": "addressMinted",
      "outputs": [
        {
          "internalType": "uint256",
          "name": "",
          "type": "uint256"
        }
      ],
      "stateMutability": "view",
      "type": "function"
    },
    {
      "inputs": [
        {
          "internalType": "address",
          "name": "to",
          "type": "address"
        },
        {
          "internalType": "uint256",
          "name": "tokenId",
          "type": "uint256"
        }
      ],
      "name": "approve",
      "outputs": [],
      "stateMutability": "nonpayable",
      "type": "function"
    },
    {
      "inputs": [
        {
          "internalType": "address",
          "name": "owner",
          "type": "address"
        }
      ],
      "name": "balanceOf",
      "outputs": [
        {
          "internalType": "uint256",
          "name": "",
          "type": "uint256"
        }
      ],
      "stateMutability": "view",
      "type": "function"
    },
    {
      "inputs": [
        {
          "internalType": "uint256",
          "name": "tokenId",
          "type": "uint256"
        }
      ],
      "name": "getApproved",
      "outputs": [
        {
          "internalType": "address",
          "name": "",
          "type": "address"
        }
      ],
      "stateMutability": "view",
      "type": "function"
    },
    {
      "inputs": [
        {
          "internalType": "address",
          "name": "owner",
          "type": "address"
        },
        {
          "internalType": "address",
          "name": "operator",
          "type": "address"
        }
      ],
      "name": "isApprovedForAll",
      "outputs": [
        {
          "internalType": "bool",
          "name": "",
          "type": "bool"
        }
      ],
      "stateMutability": "view",
      "type": "function"
    },
    {
      "inputs": [],
      "name": "makeAnEpicNFT",
      "outputs": [],
      "stateMutability": "nonpayable",
      "type": "function"
    },
    {
      "inputs": [],
      "name": "name",
      "outputs": [
        {
          "internalType": "string",
          "name": "",
          "type": "string"
        }
      ],
      "stateMutability": "view",
      "type": "function"
    },
    {
      "inputs": [],
      "name": "owner",
      "outputs": [
        {
          "internalType": "address",
          "name": "",
          "type": "address"
        }
      ],
      "stateMutability": "view",
      "type": "function"
    },
    {
      "inputs": [
        {
          "internalType": "uint256",
          "name": "tokenId",
          "type": "uint256"
        }
      ],
      "name": "ownerOf",
      "outputs": [
        {
          "internalType": "address",
          "name": "",
          "type": "address"
        }
      ],
      "stateMutability": "view",
      "type": "function"
    },
    {
      "inputs": [],
      "name": "renounceOwnership",
      "outputs": [],
      "stateMutability": "nonpayable",
      "type": "function"
    },
    {
      "inputs": [
        {
          "internalType": "address",
          "name": "from",
          "type": "address"
        },
        {
          "internalType": "address",
          "name": "to",
          "type": "address"
        },
        {
          "internalType": "uint256",
          "name": "tokenId",
          "type": "uint256"
        }
      ],
      "name": "safeTransferFrom",
      "outputs": [],
      "stateMutability": "nonpayable",
      "type": "function"
    },
    {
      "inputs": [
        {
          "internalType": "address",
          "name": "from",
          "type": "address"
        },
        {
          "internalType": "address",
          "name": "to",
          "type": "address"
        },
        {
          "internalType": "uint256",
          "name": "tokenId",
          "type": "uint256"
        },
        {
          "internalType": "bytes",
          "name": "_data",
          "type": "bytes"
        }
      ],
      "name": "safeTransferFrom",
      "outputs": [],
      "stateMutability": "nonpayable",
      "type": "function"
    },
    {
      "inputs": [
        {
          "internalType": "address",
          "name": "operator",
          "type": "address"
        },
        {
          "internalType": "bool",
          "name": "approved",
          "type": "bool"
        }
      ],
      "name": "setApprovalForAll",
      "outputs": [],
      "stateMutability": "nonpayable",
      "type": "function"
    },
    {
      "inputs": [
        {
          "internalType": "bytes4",
          "name": "interfaceId",
          "type": "bytes4"
        }
      ],
      "name": "supportsInterface",
      "outputs": [
        {
          "internalType": "bool",
          "name": "",
          "type": "bool"
        }
      ],
      "stateMutability": "view",
      "type": "function"
    },
    {
      "inputs": [],
      "name": "symbol",
      "outputs": [
        {
          "internalType": "string",
          "name": "",
          "type": "string"
        }
      ],
      "stateMutability": "view",
      "type": "function"
    },
    {
      "inputs": [
        {
          "internalType": "uint256",
          "name": "tokenId",
          "type": "uint256"
        }
      ],
      "name": "tokenURI",
      "outputs": [
        {
          "internalType": "string",
          "name": "",
          "type": "string"
        }
      ],
      "stateMutability": "view",
      "type": "function"
    },
    {
      "inputs": [
        {
          "internalType": "address",
          "name": "from",
          "type": "address"
        },
        {
          "internalType": "address",
          "name": "to",
          "type": "address"
        },
        {
          "internalType": "uint256",
          "name": "tokenId",
          "type": "uint256"
        }
      ],
      "name": "transferFrom",
      "outputs": [],
      "stateMutability": "nonpayable",
      "type": "function"
    },
    {
      "inputs": [
        {
          "internalType": "address",
          "name": "newOwner",
          "type": "address"
        }
      ],
      "name": "transferOwnership",
      "outputs": [],
      "stateMutability": "nonpayable",
      "type": "function"
    }
  ],
  "bytecode": "0x6080604052604051806080016040528060478152602001620040ed60479139600a908051906020019062000035929190620002ef565b503480156200004357600080fd5b506040518060400160405280600e81526020017f416c65634a6f686e736f6e4e46540000000000000000000000000000000000008152506040518060400160405280600b81526020017f416c65634a6f686e736f6e0000000000000000000000000000000000000000008152508160009080519060200190620000c8929190620002ef565b508060019080519060200190620000e1929190620002ef565b50505062000104620000f86200015560201b60201c565b6200015d60201b60201c565b6200014f6040518060400160405280601881526020017f54686973206973206d79204e465420636f6e74726163742100000000000000008152506200022360201b62000f811760201c565b620004cc565b600033905090565b6000600760009054906101000a900473ffffffffffffffffffffffffffffffffffffffff16905081600760006101000a81548173ffffffffffffffffffffffffffffffffffffffff021916908373ffffffffffffffffffffffffffffffffffffffff1602179055508173ffffffffffffffffffffffffffffffffffffffff168173ffffffffffffffffffffffffffffffffffffffff167f8be0079c531659141344cd1fd0a4f28419497f9722a3daafe3b4186f6b6457e060405160405180910390a35050565b620002c3816040516024016200023a9190620003e0565b6040516020818303038152906040527f41304fac000000000000000000000000000000000000000000000000000000007bffffffffffffffffffffffffffffffffffffffffffffffffffffffff19166020820180517bffffffffffffffffffffffffffffffffffffffffffffffffffffffff8381831617835250505050620002c660201b60201c565b50565b60008151905060006a636f6e736f6c652e6c6f679050602083016000808483855afa5050505050565b828054620002fd9062000456565b90600052602060002090601f0160209004810192826200032157600085556200036d565b82601f106200033c57805160ff19168380011785556200036d565b828001600101855582156200036d579182015b828111156200036c5782518255916020019190600101906200034f565b5b5090506200037c919062000380565b5090565b5b808211156200039b57600081600090555060010162000381565b5090565b6000620003ac8262000404565b620003b881856200040f565b9350620003ca81856020860162000420565b620003d581620004bb565b840191505092915050565b60006020820190508181036000830152620003fc81846200039f565b905092915050565b600081519050919050565b600082825260208201905092915050565b60005b838110156200044057808201518184015260208101905062000423565b8381111562000450576000848401525b50505050565b600060028204905060018216806200046f57607f821691505b602082108114156200048657620004856200048c565b5b50919050565b7f4e487b7100000000000000000000000000000000000000000000000000000000600052602260045260246000fd5b6000601f19601f8301169050919050565b613c1180620004dc6000396000f3fe608060405234801561001057600080fd5b50600436106101165760003560e01c80638da5cb5b116100a2578063c87b56dd11610071578063c87b56dd146102cb578063de9d132f146102fb578063e985e9c514610305578063f2fde38b14610335578063fa30297e1461035157610116565b80638da5cb5b1461025757806395d89b4114610275578063a22cb46514610293578063b88d4fde146102af57610116565b806323b872dd116100e957806323b872dd146101b557806342842e0e146101d15780636352211e146101ed57806370a082311461021d578063715018a61461024d57610116565b806301ffc9a71461011b57806306fdde031461014b578063081812fc14610169578063095ea7b314610199575b600080fd5b61013560048036038101906101309190612440565b610381565b6040516101429190612ba3565b60405180910390f35b610153610463565b6040516101609190612bbe565b60405180910390f35b610183600480360381019061017e9190612492565b6104f5565b6040516101909190612b13565b60405180910390f35b6101b360048036038101906101ae9190612404565b61057a565b005b6101cf60048036038101906101ca91906122fe565b610692565b005b6101eb60048036038101906101e691906122fe565b6106f2565b005b61020760048036038101906102029190612492565b610712565b6040516102149190612b13565b60405180910390f35b61023760048036038101906102329190612299565b6107c4565b6040516102449190612e7e565b60405180910390f35b61025561087c565b005b61025f610904565b60405161026c9190612b13565b60405180910390f35b61027d61092e565b60405161028a9190612bbe565b60405180910390f35b6102ad60048036038101906102a891906123c8565b6109c0565b005b6102c960048036038101906102c4919061234d565b6109d6565b005b6102e560048036038101906102e09190612492565b610a38565b6040516102f29190612bbe565b60405180910390f35b610303610b8a565b005b61031f600480360381019061031a91906122c2565b610ddd565b60405161032c9190612ba3565b60405180910390f35b61034f600480360381019061034a9190612299565b610e71565b005b61036b60048036038101906103669190612299565b610f69565b6040516103789190612e7e565b60405180910390f35b60007f80ac58cd000000000000000000000000000000000000000000000000000000007bffffffffffffffffffffffffffffffffffffffffffffffffffffffff1916827bffffffffffffffffffffffffffffffffffffffffffffffffffffffff1916148061044c57507f5b5e139f000000000000000000000000000000000000000000000000000000007bffffffffffffffffffffffffffffffffffffffffffffffffffffffff1916827bffffffffffffffffffffffffffffffffffffffffffffffffffffffff1916145b8061045c575061045b8261101a565b5b9050919050565b60606000805461047290613112565b80601f016020809104026020016040519081016040528092919081815260200182805461049e90613112565b80156104eb5780601f106104c0576101008083540402835291602001916104eb565b820191906000526020600020905b8154815290600101906020018083116104ce57829003601f168201915b5050505050905090565b600061050082611084565b61053f576040517f08c379a000000000000000000000000000000000000000000000000000000000815260040161053690612dbe565b60405180910390fd5b6004600083815260200190815260200160002060009054906101000a900473ffffffffffffffffffffffffffffffffffffffff169050919050565b600061058582610712565b90508073ffffffffffffffffffffffffffffffffffffffff168373ffffffffffffffffffffffffffffffffffffffff1614156105f6576040517f08c379a00000000000000000000000000000000000000000000000000000000081526004016105ed90612e1e565b60405180910390fd5b8073ffffffffffffffffffffffffffffffffffffffff166106156110f0565b73ffffffffffffffffffffffffffffffffffffffff16148061064457506106438161063e6110f0565b610ddd565b5b610683576040517f08c379a000000000000000000000000000000000000000000000000000000000815260040161067a90612cfe565b60405180910390fd5b61068d83836110f8565b505050565b6106a361069d6110f0565b826111b1565b6106e2576040517f08c379a00000000000000000000000000000000000000000000000000000000081526004016106d990612e3e565b60405180910390fd5b6106ed83838361128f565b505050565b61070d838383604051806020016040528060008152506109d6565b505050565b6000806002600084815260200190815260200160002060009054906101000a900473ffffffffffffffffffffffffffffffffffffffff169050600073ffffffffffffffffffffffffffffffffffffffff168173ffffffffffffffffffffffffffffffffffffffff1614156107bb576040517f08c379a00000000000000000000000000000000000000000000000000000000081526004016107b290612d3e565b60405180910390fd5b80915050919050565b60008073ffffffffffffffffffffffffffffffffffffffff168273ffffffffffffffffffffffffffffffffffffffff161415610835576040517f08c379a000000000000000000000000000000000000000000000000000000000815260040161082c90612d1e565b60405180910390fd5b600360008373ffffffffffffffffffffffffffffffffffffffff1673ffffffffffffffffffffffffffffffffffffffff168152602001908152602001600020549050919050565b6108846110f0565b73ffffffffffffffffffffffffffffffffffffffff166108a2610904565b73ffffffffffffffffffffffffffffffffffffffff16146108f8576040517f08c379a00000000000000000000000000000000000000000000000000000000081526004016108ef90612dde565b60405180910390fd5b61090260006114f6565b565b6000600760009054906101000a900473ffffffffffffffffffffffffffffffffffffffff16905090565b60606001805461093d90613112565b80601f016020809104026020016040519081016040528092919081815260200182805461096990613112565b80156109b65780601f1061098b576101008083540402835291602001916109b6565b820191906000526020600020905b81548152906001019060200180831161099957829003601f168201915b5050505050905090565b6109d26109cb6110f0565b83836115bc565b5050565b6109e76109e16110f0565b836111b1565b610a26576040517f08c379a0000000000000000000000000000000000000000000000000000000008152600401610a1d90612e3e565b60405180910390fd5b610a3284848484611729565b50505050565b6060610a4382611084565b610a82576040517f08c379a0000000000000000000000000000000000000000000000000000000008152600401610a7990612d9e565b60405180910390fd5b6000600660008481526020019081526020016000208054610aa290613112565b80601f0160208091040260200160405190810160405280929190818152602001828054610ace90613112565b8015610b1b5780601f10610af057610100808354040283529160200191610b1b565b820191906000526020600020905b815481529060010190602001808311610afe57829003601f168201915b505050505090506000610b2c611785565b9050600081511415610b42578192505050610b85565b600082511115610b77578082604051602001610b5f929190612a24565b60405160208183030381529060405292505050610b85565b610b808461179c565b925050505b919050565b6001600960003373ffffffffffffffffffffffffffffffffffffffff1673ffffffffffffffffffffffffffffffffffffffff1681526020019081526020016000205410610c0c576040517f08c379a0000000000000000000000000000000000000000000000000000000008152600401610c0390612e5e565b60405180910390fd5b6001600960003373ffffffffffffffffffffffffffffffffffffffff1673ffffffffffffffffffffffffffffffffffffffff168152602001908152602001600020819055506000610c5d6008611843565b90506000610c94610c6d83611851565b600a604051602001610c80929190612a6a565b6040516020818303038152906040526119fe565b9050600081604051602001610ca99190612af1565b6040516020818303038152906040529050610cf86040518060400160405280601581526020017f0a2d2d2d2d2d2d2d2d2d2d2d2d2d2d2d2d2d2d2d2d0000000000000000000000815250610f81565b610d2081604051602001610d0c9190612a48565b604051602081830303815290604052610f81565b610d5e6040518060400160405280601581526020017f2d2d2d2d2d2d2d2d2d2d2d2d2d2d2d2d2d2d2d2d0a0000000000000000000000815250610f81565b610d683384611bbc565b610d728382611bda565b610d95604051806060016040528060258152602001613b77602591398433611c4e565b610d9f6008611ced565b7febb98688741ffa4c7589bf325de30cf7becb63de567842e1ccdb6cb949fdc82c3384604051610dd0929190612b7a565b60405180910390a1505050565b6000600560008473ffffffffffffffffffffffffffffffffffffffff1673ffffffffffffffffffffffffffffffffffffffff16815260200190815260200160002060008373ffffffffffffffffffffffffffffffffffffffff1673ffffffffffffffffffffffffffffffffffffffff16815260200190815260200160002060009054906101000a900460ff16905092915050565b610e796110f0565b73ffffffffffffffffffffffffffffffffffffffff16610e97610904565b73ffffffffffffffffffffffffffffffffffffffff1614610eed576040517f08c379a0000000000000000000000000000000000000000000000000000000008152600401610ee490612dde565b60405180910390fd5b600073ffffffffffffffffffffffffffffffffffffffff168173ffffffffffffffffffffffffffffffffffffffff161415610f5d576040517f08c379a0000000000000000000000000000000000000000000000000000000008152600401610f5490612c3e565b60405180910390fd5b610f66816114f6565b50565b60096020528060005260406000206000915090505481565b61101781604051602401610f959190612bbe565b6040516020818303038152906040527f41304fac000000000000000000000000000000000000000000000000000000007bffffffffffffffffffffffffffffffffffffffffffffffffffffffff19166020820180517bffffffffffffffffffffffffffffffffffffffffffffffffffffffff8381831617835250505050611d03565b50565b60007f01ffc9a7000000000000000000000000000000000000000000000000000000007bffffffffffffffffffffffffffffffffffffffffffffffffffffffff1916827bffffffffffffffffffffffffffffffffffffffffffffffffffffffff1916149050919050565b60008073ffffffffffffffffffffffffffffffffffffffff166002600084815260200190815260200160002060009054906101000a900473ffffffffffffffffffffffffffffffffffffffff1673ffffffffffffffffffffffffffffffffffffffff1614159050919050565b600033905090565b816004600083815260200190815260200160002060006101000a81548173ffffffffffffffffffffffffffffffffffffffff021916908373ffffffffffffffffffffffffffffffffffffffff160217905550808273ffffffffffffffffffffffffffffffffffffffff1661116b83610712565b73ffffffffffffffffffffffffffffffffffffffff167f8c5be1e5ebec7d5bd14f71427d1e84f3dd0314c0f7b2291e5b200ac8c7c3b92560405160405180910390a45050565b60006111bc82611084565b6111fb576040517f08c379a00000000000000000000000000000000000000000000000000000000081526004016111f290612cde565b60405180910390fd5b600061120683610712565b90508073ffffffffffffffffffffffffffffffffffffffff168473ffffffffffffffffffffffffffffffffffffffff16148061127557508373ffffffffffffffffffffffffffffffffffffffff1661125d846104f5565b73ffffffffffffffffffffffffffffffffffffffff16145b8061128657506112858185610ddd565b5b91505092915050565b8273ffffffffffffffffffffffffffffffffffffffff166112af82610712565b73ffffffffffffffffffffffffffffffffffffffff1614611305576040517f08c379a00000000000000000000000000000000000000000000000000000000081526004016112fc90612c5e565b60405180910390fd5b600073ffffffffffffffffffffffffffffffffffffffff168273ffffffffffffffffffffffffffffffffffffffff161415611375576040517f08c379a000000000000000000000000000000000000000000000000000000000815260040161136c90612c9e565b60405180910390fd5b611380838383611d2c565b61138b6000826110f8565b6001600360008573ffffffffffffffffffffffffffffffffffffffff1673ffffffffffffffffffffffffffffffffffffffff16815260200190815260200160002060008282546113db9190613028565b925050819055506001600360008473ffffffffffffffffffffffffffffffffffffffff1673ffffffffffffffffffffffffffffffffffffffff16815260200190815260200160002060008282546114329190612f47565b92505081905550816002600083815260200190815260200160002060006101000a81548173ffffffffffffffffffffffffffffffffffffffff021916908373ffffffffffffffffffffffffffffffffffffffff160217905550808273ffffffffffffffffffffffffffffffffffffffff168473ffffffffffffffffffffffffffffffffffffffff167fddf252ad1be2c89b69c2b068fc378daa952ba7f163c4a11628f55a4df523b3ef60405160405180910390a46114f1838383611d31565b505050565b6000600760009054906101000a900473ffffffffffffffffffffffffffffffffffffffff16905081600760006101000a81548173ffffffffffffffffffffffffffffffffffffffff021916908373ffffffffffffffffffffffffffffffffffffffff1602179055508173ffffffffffffffffffffffffffffffffffffffff168173ffffffffffffffffffffffffffffffffffffffff167f8be0079c531659141344cd1fd0a4f28419497f9722a3daafe3b4186f6b6457e060405160405180910390a35050565b8173ffffffffffffffffffffffffffffffffffffffff168373ffffffffffffffffffffffffffffffffffffffff16141561162b576040517f08c379a000000000000000000000000000000000000000000000000000000000815260040161162290612cbe565b60405180910390fd5b80600560008573ffffffffffffffffffffffffffffffffffffffff1673ffffffffffffffffffffffffffffffffffffffff16815260200190815260200160002060008473ffffffffffffffffffffffffffffffffffffffff1673ffffffffffffffffffffffffffffffffffffffff16815260200190815260200160002060006101000a81548160ff0219169083151502179055508173ffffffffffffffffffffffffffffffffffffffff168373ffffffffffffffffffffffffffffffffffffffff167f17307eab39ab6107e8899845ad3d59bd9653f200f220920489ca2b5937696c318360405161171c9190612ba3565b60405180910390a3505050565b61173484848461128f565b61174084848484611d36565b61177f576040517f08c379a000000000000000000000000000000000000000000000000000000000815260040161177690612c1e565b60405180910390fd5b50505050565b606060405180602001604052806000815250905090565b60606117a782611084565b6117e6576040517f08c379a00000000000000000000000000000000000000000000000000000000081526004016117dd90612dfe565b60405180910390fd5b60006117f0611785565b90506000815111611810576040518060200160405280600081525061183b565b8061181a84611851565b60405160200161182b929190612a24565b6040516020818303038152906040525b915050919050565b600081600001549050919050565b60606000821415611899576040518060400160405280600181526020017f300000000000000000000000000000000000000000000000000000000000000081525090506119f9565b600082905060005b600082146118cb5780806118b490613175565b915050600a826118c49190612f9d565b91506118a1565b60008167ffffffffffffffff81111561190d577f4e487b7100000000000000000000000000000000000000000000000000000000600052604160045260246000fd5b6040519080825280601f01601f19166020018201604052801561193f5781602001600182028036833780820191505090505b5090505b600085146119f2576001826119589190613028565b9150600a8561196791906131be565b60306119739190612f47565b60f81b8183815181106119af577f4e487b7100000000000000000000000000000000000000000000000000000000600052603260045260246000fd5b60200101907effffffffffffffffffffffffffffffffffffffffffffffffffffffffffffff1916908160001a905350600a856119eb9190612f9d565b9450611943565b8093505050505b919050565b60606000825190506000811415611a275760405180602001604052806000815250915050611bb7565b60006003600283611a389190612f47565b611a429190612f9d565b6004611a4e9190612fce565b90506000602082611a5f9190612f47565b67ffffffffffffffff811115611a9e577f4e487b7100000000000000000000000000000000000000000000000000000000600052604160045260246000fd5b6040519080825280601f01601f191660200182016040528015611ad05781602001600182028036833780820191505090505b5090506000604051806060016040528060408152602001613b9c604091399050600181016020830160005b86811015611b745760038101905062ffffff818a015116603f8160121c168401518060081b905060ff603f83600c1c1686015116810190508060081b905060ff603f8360061c1686015116810190508060081b905060ff603f831686015116810190508060e01b90508084526004840193505050611afb565b506003860660018114611b8e5760028114611b9e57611ba9565b613d3d60f01b6002830352611ba9565b603d60f81b60018303525b508484525050819450505050505b919050565b611bd6828260405180602001604052806000815250611ecd565b5050565b611be382611084565b611c22576040517f08c379a0000000000000000000000000000000000000000000000000000000008152600401611c1990612d5e565b60405180910390fd5b80600660008481526020019081526020016000209080519060200190611c49929190612125565b505050565b611ce8838383604051602401611c6693929190612be0565b6040516020818303038152906040527fe3849f79000000000000000000000000000000000000000000000000000000007bffffffffffffffffffffffffffffffffffffffffffffffffffffffff19166020820180517bffffffffffffffffffffffffffffffffffffffffffffffffffffffff8381831617835250505050611d03565b505050565b6001816000016000828254019250508190555050565b60008151905060006a636f6e736f6c652e6c6f679050602083016000808483855afa5050505050565b505050565b505050565b6000611d578473ffffffffffffffffffffffffffffffffffffffff16611f28565b15611ec0578373ffffffffffffffffffffffffffffffffffffffff1663150b7a02611d806110f0565b8786866040518563ffffffff1660e01b8152600401611da29493929190612b2e565b602060405180830381600087803b158015611dbc57600080fd5b505af1925050508015611ded57506040513d601f19601f82011682018060405250810190611dea9190612469565b60015b611e70573d8060008114611e1d576040519150601f19603f3d011682016040523d82523d6000602084013e611e22565b606091505b50600081511415611e68576040517f08c379a0000000000000000000000000000000000000000000000000000000008152600401611e5f90612c1e565b60405180910390fd5b805181602001fd5b63150b7a0260e01b7bffffffffffffffffffffffffffffffffffffffffffffffffffffffff1916817bffffffffffffffffffffffffffffffffffffffffffffffffffffffff191614915050611ec5565b600190505b949350505050565b611ed78383611f4b565b611ee46000848484611d36565b611f23576040517f08c379a0000000000000000000000000000000000000000000000000000000008152600401611f1a90612c1e565b60405180910390fd5b505050565b6000808273ffffffffffffffffffffffffffffffffffffffff163b119050919050565b600073ffffffffffffffffffffffffffffffffffffffff168273ffffffffffffffffffffffffffffffffffffffff161415611fbb576040517f08c379a0000000000000000000000000000000000000000000000000000000008152600401611fb290612d7e565b60405180910390fd5b611fc481611084565b15612004576040517f08c379a0000000000000000000000000000000000000000000000000000000008152600401611ffb90612c7e565b60405180910390fd5b61201060008383611d2c565b6001600360008473ffffffffffffffffffffffffffffffffffffffff1673ffffffffffffffffffffffffffffffffffffffff16815260200190815260200160002060008282546120609190612f47565b92505081905550816002600083815260200190815260200160002060006101000a81548173ffffffffffffffffffffffffffffffffffffffff021916908373ffffffffffffffffffffffffffffffffffffffff160217905550808273ffffffffffffffffffffffffffffffffffffffff16600073ffffffffffffffffffffffffffffffffffffffff167fddf252ad1be2c89b69c2b068fc378daa952ba7f163c4a11628f55a4df523b3ef60405160405180910390a461212160008383611d31565b5050565b82805461213190613112565b90600052602060002090601f016020900481019282612153576000855561219a565b82601f1061216c57805160ff191683800117855561219a565b8280016001018555821561219a579182015b8281111561219957825182559160200191906001019061217e565b5b5090506121a791906121ab565b5090565b5b808211156121c45760008160009055506001016121ac565b5090565b60006121db6121d684612ebe565b612e99565b9050828152602081018484840111156121f357600080fd5b6121fe8482856130d0565b509392505050565b60008135905061221581613b1a565b92915050565b60008135905061222a81613b31565b92915050565b60008135905061223f81613b48565b92915050565b60008151905061225481613b48565b92915050565b600082601f83011261226b57600080fd5b813561227b8482602086016121c8565b91505092915050565b60008135905061229381613b5f565b92915050565b6000602082840312156122ab57600080fd5b60006122b984828501612206565b91505092915050565b600080604083850312156122d557600080fd5b60006122e385828601612206565b92505060206122f485828601612206565b9150509250929050565b60008060006060848603121561231357600080fd5b600061232186828701612206565b935050602061233286828701612206565b925050604061234386828701612284565b9150509250925092565b6000806000806080858703121561236357600080fd5b600061237187828801612206565b945050602061238287828801612206565b935050604061239387828801612284565b925050606085013567ffffffffffffffff8111156123b057600080fd5b6123bc8782880161225a565b91505092959194509250565b600080604083850312156123db57600080fd5b60006123e985828601612206565b92505060206123fa8582860161221b565b9150509250929050565b6000806040838503121561241757600080fd5b600061242585828601612206565b925050602061243685828601612284565b9150509250929050565b60006020828403121561245257600080fd5b600061246084828501612230565b91505092915050565b60006020828403121561247b57600080fd5b600061248984828501612245565b91505092915050565b6000602082840312156124a457600080fd5b60006124b284828501612284565b91505092915050565b6124c48161305c565b82525050565b6124d38161306e565b82525050565b60006124e482612f04565b6124ee8185612f1a565b93506124fe8185602086016130df565b612507816132ab565b840191505092915050565b600061251d82612f0f565b6125278185612f2b565b93506125378185602086016130df565b612540816132ab565b840191505092915050565b600061255682612f0f565b6125608185612f3c565b93506125708185602086016130df565b80840191505092915050565b6000815461258981613112565b6125938186612f3c565b945060018216600081146125ae57600181146125bf576125f2565b60ff198316865281860193506125f2565b6125c885612eef565b60005b838110156125ea578154818901526001820191506020810190506125cb565b838801955050505b50505092915050565b6000612608602583612f3c565b9150612613826132bc565b602582019050919050565b600061262b603283612f2b565b91506126368261330b565b604082019050919050565b600061264e602683612f2b565b91506126598261335a565b604082019050919050565b6000612671600283612f3c565b915061267c826133a9565b600282019050919050565b6000612694601483612f3c565b915061269f826133d2565b601482019050919050565b60006126b7602583612f2b565b91506126c2826133fb565b604082019050919050565b60006126da601c83612f2b565b91506126e58261344a565b602082019050919050565b60006126fd602483612f2b565b915061270882613473565b604082019050919050565b6000612720601983612f2b565b915061272b826134c2565b602082019050919050565b6000612743602c83612f2b565b915061274e826134eb565b604082019050919050565b6000612766603883612f2b565b91506127718261353a565b604082019050919050565b6000612789600183612f3c565b915061279482613589565b600182019050919050565b60006127ac602a83612f2b565b91506127b7826135b2565b604082019050919050565b60006127cf602983612f2b565b91506127da82613601565b604082019050919050565b60006127f2602e83612f2b565b91506127fd82613650565b604082019050919050565b6000612815602083612f2b565b91506128208261369f565b602082019050919050565b6000612838600183612f3c565b9150612843826136c8565b600182019050919050565b600061285b603183612f2b565b9150612866826136f1565b604082019050919050565b600061287e602c83612f2b565b915061288982613740565b604082019050919050565b60006128a1602083612f2b565b91506128ac8261378f565b602082019050919050565b60006128c4600183612f3c565b91506128cf826137b8565b600182019050919050565b60006128e7602f83612f2b565b91506128f2826137e1565b604082019050919050565b600061290a600183612f3c565b915061291582613830565b600182019050919050565b600061292d600b83612f3c565b915061293882613859565b600b82019050919050565b6000612950602183612f2b565b915061295b82613882565b604082019050919050565b6000612973601d83612f3c565b915061297e826138d1565b601d82019050919050565b6000612996603183612f2b565b91506129a1826138fa565b604082019050919050565b60006129b9605483612f2b565b91506129c482613949565b606082019050919050565b60006129dc60e883612f3c565b91506129e7826139be565b60e882019050919050565b60006129ff601583612f3c565b9150612a0a82613af1565b601582019050919050565b612a1e816130c6565b82525050565b6000612a30828561254b565b9150612a3c828461254b565b91508190509392505050565b6000612a53826125fb565b9150612a5f828461254b565b915081905092915050565b6000612a75826128fd565b9150612a80826129f2565b9150612a8c828561254b565b9150612a9782612664565b9150612aa282612687565b9150612aad826128b7565b9150612ab8826129cf565b9150612ac382612920565b9150612acf828461257c565b9150612ada8261277c565b9150612ae58261282b565b91508190509392505050565b6000612afc82612966565b9150612b08828461254b565b915081905092915050565b6000602082019050612b2860008301846124bb565b92915050565b6000608082019050612b4360008301876124bb565b612b5060208301866124bb565b612b5d6040830185612a15565b8181036060830152612b6f81846124d9565b905095945050505050565b6000604082019050612b8f60008301856124bb565b612b9c6020830184612a15565b9392505050565b6000602082019050612bb860008301846124ca565b92915050565b60006020820190508181036000830152612bd88184612512565b905092915050565b60006060820190508181036000830152612bfa8186612512565b9050612c096020830185612a15565b612c1660408301846124bb565b949350505050565b60006020820190508181036000830152612c378161261e565b9050919050565b60006020820190508181036000830152612c5781612641565b9050919050565b60006020820190508181036000830152612c77816126aa565b9050919050565b60006020820190508181036000830152612c97816126cd565b9050919050565b60006020820190508181036000830152612cb7816126f0565b9050919050565b60006020820190508181036000830152612cd781612713565b9050919050565b60006020820190508181036000830152612cf781612736565b9050919050565b60006020820190508181036000830152612d1781612759565b9050919050565b60006020820190508181036000830152612d378161279f565b9050919050565b60006020820190508181036000830152612d57816127c2565b9050919050565b60006020820190508181036000830152612d77816127e5565b9050919050565b60006020820190508181036000830152612d9781612808565b9050919050565b60006020820190508181036000830152612db78161284e565b9050919050565b60006020820190508181036000830152612dd781612871565b9050919050565b60006020820190508181036000830152612df781612894565b9050919050565b60006020820190508181036000830152612e17816128da565b9050919050565b60006020820190508181036000830152612e3781612943565b9050919050565b60006020820190508181036000830152612e5781612989565b9050919050565b60006020820190508181036000830152612e77816129ac565b9050919050565b6000602082019050612e936000830184612a15565b92915050565b6000612ea3612eb4565b9050612eaf8282613144565b919050565b6000604051905090565b600067ffffffffffffffff821115612ed957612ed861327c565b5b612ee2826132ab565b9050602081019050919050565b60008190508160005260206000209050919050565b600081519050919050565b600081519050919050565b600082825260208201905092915050565b600082825260208201905092915050565b600081905092915050565b6000612f52826130c6565b9150612f5d836130c6565b9250827fffffffffffffffffffffffffffffffffffffffffffffffffffffffffffffffff03821115612f9257612f916131ef565b5b828201905092915050565b6000612fa8826130c6565b9150612fb3836130c6565b925082612fc357612fc261321e565b5b828204905092915050565b6000612fd9826130c6565b9150612fe4836130c6565b9250817fffffffffffffffffffffffffffffffffffffffffffffffffffffffffffffffff048311821515161561301d5761301c6131ef565b5b828202905092915050565b6000613033826130c6565b915061303e836130c6565b925082821015613051576130506131ef565b5b828203905092915050565b6000613067826130a6565b9050919050565b60008115159050919050565b60007fffffffff0000000000000000000000000000000000000000000000000000000082169050919050565b600073ffffffffffffffffffffffffffffffffffffffff82169050919050565b6000819050919050565b82818337600083830152505050565b60005b838110156130fd5780820151818401526020810190506130e2565b8381111561310c576000848401525b50505050565b6000600282049050600182168061312a57607f821691505b6020821081141561313e5761313d61324d565b5b50919050565b61314d826132ab565b810181811067ffffffffffffffff8211171561316c5761316b61327c565b5b80604052505050565b6000613180826130c6565b91507fffffffffffffffffffffffffffffffffffffffffffffffffffffffffffffffff8214156131b3576131b26131ef565b5b600182019050919050565b60006131c9826130c6565b91506131d4836130c6565b9250826131e4576131e361321e565b5b828206905092915050565b7f4e487b7100000000000000000000000000000000000000000000000000000000600052601160045260246000fd5b7f4e487b7100000000000000000000000000000000000000000000000000000000600052601260045260246000fd5b7f4e487b7100000000000000000000000000000000000000000000000000000000600052602260045260246000fd5b7f4e487b7100000000000000000000000000000000000000000000000000000000600052604160045260246000fd5b6000601f19601f8301169050919050565b7f68747470733a2f2f6e6674707265766965772e30786465762e636f6465732f3f60008201527f636f64653d000000000000000000000000000000000000000000000000000000602082015250565b7f4552433732313a207472616e7366657220746f206e6f6e20455243373231526560008201527f63656976657220696d706c656d656e7465720000000000000000000000000000602082015250565b7f4f776e61626c653a206e6577206f776e657220697320746865207a65726f206160008201527f6464726573730000000000000000000000000000000000000000000000000000602082015250565b7f222c000000000000000000000000000000000000000000000000000000000000600082015250565b7f226465736372697074696f6e223a202248692049000000000000000000000000600082015250565b7f4552433732313a207472616e736665722066726f6d20696e636f72726563742060008201527f6f776e6572000000000000000000000000000000000000000000000000000000602082015250565b7f4552433732313a20746f6b656e20616c7265616479206d696e74656400000000600082015250565b7f4552433732313a207472616e7366657220746f20746865207a65726f2061646460008201527f7265737300000000000000000000000000000000000000000000000000000000602082015250565b7f4552433732313a20617070726f766520746f2063616c6c657200000000000000600082015250565b7f4552433732313a206f70657261746f7220717565727920666f72206e6f6e657860008201527f697374656e7420746f6b656e0000000000000000000000000000000000000000602082015250565b7f4552433732313a20617070726f76652063616c6c6572206973206e6f74206f7760008201527f6e6572206e6f7220617070726f76656420666f7220616c6c0000000000000000602082015250565b7f2200000000000000000000000000000000000000000000000000000000000000600082015250565b7f4552433732313a2062616c616e636520717565727920666f7220746865207a6560008201527f726f206164647265737300000000000000000000000000000000000000000000602082015250565b7f4552433732313a206f776e657220717565727920666f72206e6f6e657869737460008201527f656e7420746f6b656e0000000000000000000000000000000000000000000000602082015250565b7f45524337323155524953746f726167653a2055524920736574206f66206e6f6e60008201527f6578697374656e7420746f6b656e000000000000000000000000000000000000602082015250565b7f4552433732313a206d696e7420746f20746865207a65726f2061646472657373600082015250565b7f7d00000000000000000000000000000000000000000000000000000000000000600082015250565b7f45524337323155524953746f726167653a2055524920717565727920666f722060008201527f6e6f6e6578697374656e7420746f6b656e000000000000000000000000000000602082015250565b7f4552433732313a20617070726f76656420717565727920666f72206e6f6e657860008201527f697374656e7420746f6b656e0000000000000000000000000000000000000000602082015250565b7f4f776e61626c653a2063616c6c6572206973206e6f7420746865206f776e6572600082015250565b7f2700000000000000000000000000000000000000000000000000000000000000600082015250565b7f4552433732314d657461646174613a2055524920717565727920666f72206e6f60008201527f6e6578697374656e7420746f6b656e0000000000000000000000000000000000602082015250565b7f7b00000000000000000000000000000000000000000000000000000000000000600082015250565b7f22696d61676522203a2022000000000000000000000000000000000000000000600082015250565b7f4552433732313a20617070726f76616c20746f2063757272656e74206f776e6560008201527f7200000000000000000000000000000000000000000000000000000000000000602082015250565b7f646174613a6170706c69636174696f6e2f6a736f6e3b6261736536342c000000600082015250565b7f4552433732313a207472616e736665722063616c6c6572206973206e6f74206f60008201527f776e6572206e6f7220617070726f766564000000000000000000000000000000602082015250565b7f596f752772652077616c6c657420616464726573732068617320616c7265616460008201527f79206d696e746564206f6e65206f66206d79204e46547321204f6e6c7920312060208201527f70657220706572736f6e20706c65617365203b29000000000000000000000000604082015250565b7f6d20416c656321205468616e6b20796f7520666f72206d696e74696e67206d7960008201527f204e46542e204920686f706520697420736572766573206173206120746f6b6560208201527f6e206f66206f757220636f6e6e656374696f6e20696e2074686973206372617a60408201527f7920776f726c64206f6620776562332e20506c65617365206665656c2066726560608201527f6520746f207265616368206f757420746f206d6520616e7974696d65206f6e2060808201527f747769747465722040416c65634a6f686e736f6e446576206f72206f6e206d7960a08201527f2077656273697465207777772e616c65636a6f686e736f6e2e696e666f2e204360c08201527f686565727321222c00000000000000000000000000000000000000000000000060e082015250565b7f226e616d65223a2022416c65634a6f686e736f6e230000000000000000000000600082015250565b613b238161305c565b8114613b2e57600080fd5b50565b613b3a8161306e565b8114613b4557600080fd5b50565b613b518161307a565b8114613b5c57600080fd5b50565b613b68816130c6565b8114613b7357600080fd5b5056fe416e204e465420772f20494420257320686173206265656e206d696e74656420746f2025734142434445464748494a4b4c4d4e4f505152535455565758595a6162636465666768696a6b6c6d6e6f707172737475767778797a303132333435363738392b2fa26469706673582212201d0d4c4d23f8d88d199390c34001164cc90f1e55eccc2f9dc2e7cf5ac2369a6f64736f6c6343000801003368747470733a2f2f616c65636a6f686e736f6e2e696e666f2f77702d636f6e74656e742f75706c6f6164732f323032322f30332f416c65635f4e46542d7363616c65642e6a7067",
  "linkReferences": {},
  "deployedLinkReferences": {}
}